:020000040000FA
:060000000A128A110C280F
:10000800FE00030EF3000A08F4000A128A116F2892
:100018000A128A110F28F801F901FA01FB01FC0103
:10002800FD0183010A128A11B528013083160313D2
:100038008500831203138501FF308316031386009E
:100048008312031386018316031387018312031394
:10005800870183160313880183120313880183160B
:1000680003138901831203138901013083160317CF
:1000780088008901831603130F088F3960388F00B1
:100088000F14831203130C13831603130C170B1787
:100098008B178B1516149614831203139F131F17AF
:1000A800831603131F129F129F13831203131F1427
:1000B800C3309F051030F500F50B6028000083124F
:1000C80003139F140730F6007D30F500F50B6A28FE
:1000D800F60B6A2808000B1C722873289C288312C8
:1000E8000313061C782879287B28FB01FB0A0618CD
:1000F8007E287F2889287B03031D83288428892854
:10010800FB010130F20072088707861C8C288D28B5
:100118008F28FA01FA0A8618922893289B287A03CE
:10012800031D972898289B28FA01013087020B1095
:10013800831203130C1FA128A228AE280A128A11C1
:10014800C6200A128A11F2007208F900790883128F
:100158000313880074088A00730E8300FE0E7E0E57
:1001680009000A128A1119200A128A11831203132C
:100178009F141030F700F70BBF280000BA280A12A6
:100188008A110C28831203131E08F0007008F1006E
:060198000C1371080800C1
:04400E00D420FF3F7C
:00000001FF
