:020000040000FA
:060000000A128A110C280F
:10000800FE00030EF7000A08F8000A128A111928E0
:100018000A128A110F28F001F101F201F301F4012B
:10002800F50183010A128A117B280B1C1C281D2844
:10003800462883120313061C222823282528F301A7
:10004800F30A06182828292833287303031D2D28A6
:100058002E283328F3010130F60076088707861C1E
:10006800362837283928F201F20A86183C283D2814
:1000780045287203031D412842284528F201013012
:1000880087020B1078088A00770E8300FE0E7E0E1A
:1000980009000130831603138500831203138501B9
:1000A800FF30831603138600831203138601831619
:1000B800031387018312031387018316031388012F
:1000C8008312031388018316031389018312031310
:1000D8008901831603178801890170308316031379
:1000E8008F040F148B178B151614961408000A1218
:1000F8008A114D200A128A1180280A128A110C28A6
:04400E00D420FF3F7C
:00000001FF
