:020000040000FA
:060000000A128A11FA2F1A
:100D78000A128A11D0260A128A1183120313061C3A
:100D8800C62EC72EC12E0A128A11F9260A128A11F6
:100D9800C12E0A128A1100288316031385018312B3
:100DA80003138501FF308316031386008312031390
:100DB80086018316031387018312031387018316A1
:100DC800031388018312031388018316031389010F
:100DD8008312031389018316031788018901703070
:100DE800831603138F040F140800073083120313AC
:100DF8008900880103300A128A1168270A128A11A9
:100E0800F5007508F9007908831203138800083083
:100E1800F7009D30F6000530F500F50B112FF60BA5
:100E2800112FF70B112F182F063083120313890087
:100E3800880102300A128A1168270A128A11F500FD
:100E48007508F90079088312031388000830F70041
:100E58009D30F6000530F500F50B302FF60B302FDE
:100E6800F70B302F372F04308312031389008801C2
:100E780001300A128A1168270A128A11F5007508CA
:100E8800F90079088312031388000830F7009D30B1
:100E9800F6000530F500F50B4F2FF60B4F2FF70B2B
:100EA8004F2F562F831203138901880100300A122D
:100EB8008A1168270A128A11F5007508F90079085D
:100EC8008312031388000800F2007208F00070080B
:100ED800F300BE2F3F30F0007008F400F82F063002
:100EE800F0007008F400F82F5B30F0007008F40090
:100EF800F82F4F30F0007008F400F82F6630F0003B
:100F08007008F400F82F6D30F0007008F400F82F26
:100F18007D30F0007008F400F82F0730F0007008FA
:100F2800F400F82F7F30F0007008F400F82F6F30CD
:100F3800F0007008F400F82F7730F0007008F40023
:100F4800F82F7C30F0007008F400F82F3930F000EA
:100F58007008F400F82F5E30F0007008F400F82FE5
:100F68007930F0007008F400F82F7130F000700844
:100F7800F400F82F7308F000F1017108003A031922
:100F8800C62FF82F7008003A03196E2F013A03197B
:100F9800732F033A0319782F013A03197D2F073A63
:100FA8000319822F013A0319872F033A03198C2F4B
:100FB800013A0319912F0F3A0319962F013A031991
:100FC8009B2F033A0319A02F013A0319A52F073ABB
:100FD8000319AA2F013A0319AF2F033A0319B42FA3
:100FE800013A0319B92FF82F74080800F801F9011C
:080FF80083010A128A11BC2ECC
:04400E00D420FF3F7C
:00000001FF
